:020000040800F2
:1000000040100020450100085B1800083F17000859
:1000100059180008FD060008091C0008000000002F
:100020000000000000000000000000005F18000851
:10003000FF060008000000005D18000861180008B5
:100040005F0100085F0100085F0100085F01000810
:100050005F0100085F0100085F0100085F01000800
:100060005F0100085F0100085F0100085F010008F0
:100070005F0100085F0100085F0100085F010008E0
:100080005F0100085F0100085F0100085F010008D0
:100090005F0100085F0100085F0100085F010008C0
:1000A0005F0100085F0100085F0100085F010008B0
:1000B000FD1800085F0100085F0100085F010008EB
:1000C0005F0100085F0100085F0100085F01000890
:1000D0005F010008DD1B00085F010008E91B000844
:1000E0005F0100085F0100085F0100085F01000870
:1000F0005F0100085F0100085F0100085F01000860
:100100005F0100085F0100085F0100085F0100084F
:100110005F0100085F0100085F0100085F0100083F
:100120005F0100085F0100085F0100085F0100082F
:10013000DFF80CD000F052FA004800473D2D0008CF
:10014000401000200648804706480047FEE7FEE7CB
:10015000FEE7FEE7FEE7FEE7FEE7FEE7FEE7FEE777
:10016000B518000831010008202A04DB203A21FAE2
:1001700002F00021704721FA02F3D040C2F12002C0
:100180009140084319467047D2B201E000F8012BB4
:10019000491EFBD270470022F6E710B513460A4607
:1001A00004461946FFF7F0FF204610BD30B505465E
:1001B0002A460B4612F8010B13F8014B08B1A04276
:1001C000F8D01CB1002802D06D1CF1E7284630BDE4
:1001D000421C10F8011B0029FBD1801A704730B572
:1001E0000B46014600202022012409E021FA02F5F5
:1001F0009D4205D303FA02F5491B04FA02F528448F
:10020000151EA2F10102F1DC30BD2DE9F05F0546BB
:10021000002092469B4688460646814640241BE0C5
:100220002846414647462246FFF79EFF53465A4618
:10023000C01A914110D311461846224600F0E0F949
:100240002D1A67EB01084F4622460120002100F0DD
:10025000D7F917EB00094E41201EA4F10104DFDCA1
:10026000484631462A464346BDE8F09F2DE9FE4FF9
:10027000804681EA0300C00F0C46009021F0004147
:1002800023F00045B8EB0200A94105D240462146C3
:1002900090461C460B46024623F00040104347D0D0
:1002A000270DC7F30A00C3F30A510290401A0190C8
:1002B00040286BDAC3F3130040F4801B0098924689
:1002C00020B10023D2EB030A63EB0B0B01985946D4
:1002D000C0F14002504600F093F906460D465046E4
:1002E0005946019A00F09BF910EB08006141002487
:1002F00087EA115284EAE7731A4340D0009A62B346
:10030000019A012A4FEA075215DC001B61EB02013A
:100310004FF0004202EA0752CDE90042001C41F5CD
:10032000801132462B4600F09BF903B0BDE8F08FF8
:1003300040462146F9E7001B61EB0201001C41F534
:10034000801300185B412018A2F5001747EB03014A
:1003500040EAD570B6196D4111E06D084FEA3606D6
:1003600045EAC0754FEA0752001B61EB0201001C11
:1003700041F5801149084FEA3000001951413246D9
:100380002B4603B0BDE8F04F00F05BB900980122A6
:1003900040000023D0EB020263EBE073009821469B
:1003A0004FEAE074B8EB000061EB0401E9E783F089
:1003B00000435BE781F0004158E72DE9FE4F81EAF9
:1003C000030404F0004421F0004100944FF0000BBE
:1003D00023F0004350EA01045ED052EA03045BD0EC
:1003E000C3F30A54C1F30A552C44A4F2F334019424
:1003F000A0FB0254C1F3130141F48011C3F31303B2
:1004000043F4801301FB024400FB034E840A970A65
:1004100044EA815447EA8357A4FB076802958D0A92
:1004200005FB07854FEA932C04FB0C542705029D1E
:100430004FEA065847EA1637B5EB08056EEB070C8E
:10044000870E920E47EA811742EA8312A7FB020148
:10045000B6EB0B0164EB00042B0D43EA0C335E1882
:1004600044EB1C50DA465146E7FB0201C5F3130486
:100470004FEA0B3343EA14534FEA0432019C43EA38
:100480000603A4F10C040294009CCDE900B400F032
:10049000E7F803B0BDE8F08F00200146F9E72DE949
:1004A000F04D81EA030404F0004B21F000451446AE
:1004B0004FF0000A23F0004150EA050220D054EA30
:1004C00001021DD0C5F30A570246C5F31303C1F359
:1004D0001300C1F30A5640F4801543F48013A7EBD0
:1004E0000608101BD64608F2FD3873EB050002D350
:1004F00008F1010801E092185B41B8F1000F03DA3E
:1005000000200146BDE8F08D00204FF48011064622
:1005100084460EE0171B73EB050705D3121B63EB34
:10052000050306434CEA010C49084FEA30009218D3
:100530005B4150EA0107EDD152EA030012D082EA92
:10054000040083EA0501084305D0101BAB4106D225
:100550000122002306E000224FF0004302E06FF08A
:10056000010253101AEB06004CEB085110EB0A0085
:1005700041EB0B01BDE8F04D00F063B8C1F30A5246
:10058000C1F3130140F2FF3341F480119A4202DAC1
:1005900000200146704740F233439A42A2F23342B0
:1005A00002DC5242FFF7E0BD00F02AB830B5041E6D
:1005B00071F1000404DB4FF00044404264EB0101A0
:1005C000141E73F1000405DB1C464FF00043524239
:1005D00063EB0403994208BF904230BD064C074DBF
:1005E00006E0E06840F0010394E807009847103403
:1005F000AC42F6D3FFF7A0FD982E0008B82E0008F5
:10060000202A04DB203A00FA02F1002070479140D2
:10061000C2F1200320FA03F3194390407047202AC7
:1006200006DBCB17203A41FA02F043EAE07306E01A
:1006300041FA02F3D040C2F120029140084319462A
:10064000704710B5141E73F1000408DA401C41F124
:10065000000192185B411A4301D120F0010010BD46
:100660002DE9F04D92469B4611B1B1FA81F202E0BC
:10067000B0FA80F220329046FFF7C2FF04460F46E0
:1006800040EA0A0041EA0B0153465A46084313D098
:10069000114653EA010019D0C8F140025046FFF755
:1006A00063FD05460E46504659464246FFF7A8FFF1
:1006B000084305D0012004E020463946BDE8F08D0E
:1006C0000020054346EAE0762C4337430A98630549
:1006D000E40AA0EB08000022FD0A44EA47540A306D
:1006E00002D500200146E9E7010510196941DDE95D
:1006F000084500196941BDE8F04DA2E7FEE77047E3
:10070000704700002DE9F05F90F8211000240229C5
:1007100003D004218163012485E001680A6822F086
:100720000E020A6001680A6822F001020A603F4E68
:100730003E4FB215DFF8F4C0DFF8F090DFF8ECA020
:10074000DFF8E8B0DFF8E4E00168783F1301150254
:10075000ACF1640CA9F15009AAF13C0AABF1280BE9
:10076000AEF1140E4FF48018B14227D9B9420ED021
:10077000614512D049451DD0514518D0594518D072
:10078000714501D1424615E0294EB14201D1012205
:1007900010E0274E1436B14201D110220AE0244E57
:1007A0002836B14206D0224A3C32914201D11A4643
:1007B00000E02A461E49091F0A602BE0B94213D007
:1007C000614517D0494522D051451DD059451DD00E
:1007D000714501D142461AE0B14202D14FF0807218
:1007E00015E0134EB14201D1012210E0104E143633
:1007F000B14201D110220AE00D4E2836B14206D096
:100800000B4A3C32914201D11A4600E02A46074980
:1008100080394A60012180F82110002180F82010E1
:10082000416B01B188472046BDE8F09F800002403F
:100830000804024070B5044600F00AF90546601C41
:1008400002D004480078044400F002F9401BA042A2
:10085000FAD370BD040000202DE9F84FDFF8C891ED
:10086000002409F1040A0AF1040B23460F270BF1B7
:10087000040ED1E00125A54006EA0502AA4276D180
:10088000DFF8A8C14E68A6EB0C0866452BD00DDC3E
:10089000032E34D005DC36B3012E19D0022E2FD111
:1008A0001BE0112E16D0122E2AD119E0B8F5881FA0
:1008B00019D006DCB8F5803F15D0B8F5801F1FD1E0
:1008C00011E0B8F5001F0ED0B8F5041F18D10AE0EA
:1008D000CB6815E0CB681B1D12E0CB6808330FE036
:1008E000CB680C330CE08B682BB1012B4FF0080365
:1008F00003D0456104E0042302E0056100E0002329
:10090000FF2A01D8064601E000F104064FEA8405FB
:1009100001D9A5F12005D6F8008007FA05FC28EAE0
:100920000C0803FA05F548EA0508C6F800804D688A
:10093000ED0070D53E4DAE6946F00106AE61AD6981
:1009400024F0030605F0010500953A4D06EB050C71
:10095000DCF80850A607360F07FA06F825EA08055E
:10096000DFF8D480404503D14FF0000825E052E085
:10097000DFF8C880404502D14FF001081DE0DFF8E4
:10098000C080404502D14FF0020816E0DFF8B48085
:10099000404502D14FF003080FE0DFF8AC8040453E
:1009A00002D14FF0040808E0DFF8A080404502D1F2
:1009B0004FF0050801E04FF0060808FA06F848EA8B
:1009C0000508CCF808804D68D9F80060ED034D4665
:1009D00001D5164300E096432E604D68DAF80060BA
:1009E000AD03554601D5164300E096432E604D6891
:1009F000DBF80060ED025D4601D5164300E096434A
:100A00002E604D68DEF80060AD02754601D51643D4
:100A100000E096432E60641C0A681646E2407FF4AC
:100A200029AFBDE8F88F000000040140000011105C
:100A3000001002400000014000080140000C01408D
:100A4000001001400014014000180140001C01404A
:100A50000148806870470000040000200248816857
:100A6000027811448160704704000020074810B5E7
:100A7000016841F010010160032000F075F80020CA
:100A800000F006F800F024F8002010BD002002401D
:100A900070B50D4D04464FF47A712878B1FBF0F033
:100AA0000A490968B1FBF0F000F0ECFA48B9102CE3
:100AB00007D200222146501E00F036F800206C605C
:100AC00070BD012070BD0000040000201000002057
:100AD0000C4808B5816941F001018161816901F02B
:100AE00001010091C16941F08051C161C06900F00C
:100AF000805000900448416821F0E06141F00071AD
:100B0000416008BD0010024000000140002809DBE0
:100B100000F01F02012191404009800000F1E02017
:100B2000C0F8001170470000F0B40E4B1B680C4673
:100B3000C3F30223C3F10705042D00D90425191DB1
:100B4000072901D2002300E0DB1E012606FA05F189
:100B5000491E214099409E40761E16403143F0BC0C
:100B600001F07AB80CED00E0064900F007020868D1
:100B70004FF6FF03184040EA0220034A1043086082
:100B8000704700000CED00E00000FA052DE9F04789
:100B90000F46050061D0434E306800F00700B842B0
:100BA00009D2306820F0070038433060306800F028
:100BB0000700B84251D128683B4C810712D5400745
:100BC00003D5606840F4E06060602878000703D5D2
:100BD000606840F4605060606068A96820F0F000D0
:100BE000084360602878C00728D06868012810D0C2
:100BF0002168022810D0890700292EDA616821F0C7
:100C0000030101436160FFF723FF804641F2883909
:100C10000DE021688903EFE78901EDE7FFF718FF91
:100C2000A0EB0801494502D90320BDE8F0876068C0
:100C3000696800F00C00B0EB810FEFD1306800F074
:100C40000700B8420BD9306820F007003843306005
:100C5000306800F00700B84201D00120E5E72878AD
:100C6000400705D56068E96820F4E06008436060EB
:100C70002878000706D56068296920F4605040EAAA
:100C8000C100606000F038F86168084AC1F30311E0
:100C9000515CC8400649086006480068FFF7F8FE46
:100CA0000020C2E70020024000100240802E000811
:100CB0001000002008000020044805490068496829
:100CC000044AC1F30221515CC84070471000002063
:100CD00000100240902E0008044805490068496849
:100CE000044AC1F3C221515CC84070471000002083
:100CF00000100240902E000812A185B00FC98DE8A7
:100D00000F0014A0144A006804905168134801F0C1
:100D10000C03042B10D0082B0ED1C1F38343C9035D
:100D20001DF803000AD5516804AAC1F34041515C83
:100D30000A4A5043B0FBF1F005B0704708494843F8
:100D4000FAE7000002030405060708090A0B0C0D68
:100D50000E0F1010010200000010024000127A0075
:100D600000093D002DE9F84F040070D02078C04DF7
:100D7000C00749D06868C0F38100012807D06868BF
:100D8000C0F38100022809D16868C00306D528682D
:100D9000800339D560680028E7D035E06068B0F599
:100DA000803F0BD010B1B0F5A02F11D0286820F4EF
:100DB00080302860286820F4802002E0286840F411
:100DC00080302860606890B1FFF742FE06460AE076
:100DD000286840F480202860F0E700BFFFF738FE65
:100DE000801B642873D828688003F7D50CE0FFF7D0
:100DF0002FFE064605E000BFFFF72AFE801B642891
:100E0000F0D828688003F7D420789A4E80074FF0F6
:100E100001094FF0000839D5686810F00C0F07D0B1
:100E20006868C0F38100022809D16868C00306D44D
:100E30002868800714D52069012808D110E02069AE
:100E4000B0B1C6F80090FFF703FE074605E00AE1DF
:100E5000FFF7FEFDC01B0228C4D828688007F7D51D
:100E60002868616920F0F80040EAC10028600DE0C0
:100E7000C6F80080FFF7ECFD074604E0FFF7E8FD49
:100E8000C01B022823D828688007F7D420780007E1
:100E90002CD57948A169D9B1C0F80090FFF7D8FDE9
:100EA000074604E0FFF7D4FDC01B02280FD8686A8C
:100EB0008007F7D571484FF4FA510068B0FBF1F0A4
:100EC000009000BF0098411E0091FAD20EE080E031
:100ED000C0F80080FFF7BCFD074604E0FFF7B8FD4F
:100EE000C01B022875D8686A8007F7D420784007AD
:100EF00060D5E8690027C00008D4E86940F0805058
:100F0000E861E869012700F0805000905C480168C2
:100F1000C90513D40168834641F480710160FFF76D
:100F200097FD824606E000BFFFF792FDA0EB0A00A6
:100F300064284ED8DBF80000C005F5D5E06801282C
:100F40000AD008B1052813D0286A20F001002862D1
:100F5000286A20F0040002E0286A40F001002862BC
:100F6000E06841F2883B98B1FFF772FD82460BE0E2
:100F7000286A40F004002862EEE700BFFFF768FD32
:100F8000A0EB0A0159455AD8286A8007F6D50CE02B
:100F9000FFF75EFD824605E0FFF75AFDA0EB0A0170
:100FA00059454CD8286A8007F6D41FB1E86920F06B
:100FB0008050E861E06988B36968C1F38101022962
:100FC00044D00228C6F8608004D0FFF741FD0446F3
:100FD00038E034E0FFF73CFD074604E0FFF738FD5A
:100FE000C01B02282BD828688001F7D4206AB0F5EE
:100FF000803F05D16868A16820F40030084368602C
:10100000D4E908010843696821F474110843686051
:10101000C6F86090FFF71CFD044606E025E000BF1F
:10102000FFF716FD001B022809D828688001F7D5B4
:101030001BE000BFFFF70CFD001B022802D90320B4
:10104000BDE8F88F28688001F4D40EE00128F7D0BD
:101050006868226A00F48031914204D1616A00F428
:101060007010884201D00120EAE70020E8E7000084
:101070000010024000004242800442421000002062
:101080000070004010B5401EB0F1807F01D30120F8
:1010900010BD4FF0E02460610F21601700F0DCFD0F
:1010A0000020A06107202061002010BD704770471C
:1010B00070B590F83C20012A19D0012400F83C4F6B
:1010C0000222427050F83C3C5A689D6822F070063B
:1010D0000A684968324325F0800529435A6050F870
:1010E0003C2C9160447000210170084670BD0220C4
:1010F00070BD10B5040003D094F83D0010B107E0B6
:10110000012010BD002084F83C00204600F00CF8BF
:10111000022084F83D00211D206800F0F5FB01202D
:1011200084F83D00002010BD08B50068B0F1804F84
:1011300012D10A48C16941F00101C161C0690022B0
:1011400000F00100009001211C20FFF7EDFCBDE83C
:1011500008401C20FFF7DABC08BD00000010024068
:101160000168CA6842F00102CA600068816801F043
:101170000701062903D0016841F001010160002048
:10118000704770B5044690F83C00012817D001253F
:1011900084F83C50022084F83D002068826822F0E8
:1011A000770222F47F4282600868502830D00DDC3C
:1011B00020284DD005DC98B310283BD148E0022010
:1011C00070BD302844D0402834D139E0602828D080
:1011D000702806D0B0F5805F2CD0B0F5005F29D123
:1011E0000AE0CB68D1E90121206800F0D3FB206838
:1011F000816841F0770109E0CB68D1E901212068DD
:1012000000F0C8FB2068816841F48041816011E0F2
:10121000CA684968206800F0CFFB5021206807E0C9
:1012200016E0CA684968206800F0D7FB6021206892
:1012300000F0BAFB84F83D50002084F83C0070BDFB
:10124000CA684968206800F0B7FB40212068EFE7D2
:10125000226801461046EBE7704770B50446006807
:1012600001694FF00005C943890715D4C168C94316
:10127000890711D4E91E0161012020772068806967
:101280008007204602D0FFF7E7FF04E000F098F85F
:10129000204600F096F8257720680169C943490780
:1012A00017D4C168C943490713D46FF00401016121
:1012B000022020772068806910F4407F204602D009
:1012C000FFF7CAFF04E000F07BF8204600F079F851
:1012D000257720680169C943090716D4C168C94345
:1012E000090712D46FF008010161042020772068FB
:1012F000C0698007204602D0FFF7AEFF04E000F08F
:101300005FF8204600F05DF8257720680169C94341
:10131000C90617D4C168C943C90613D46FF01001B8
:101320000161082020772068C06910F4407F2046C2
:1013300002D0FFF791FF04E000F042F8204600F0F1
:1013400040F8257720680169C943C90708D1C168F9
:10135000C943C90704D1891E0161204600F032F853
:1013600020680169C943090609D4C168C94309064F
:1013700005D46FF0800101612046FFF797FE2068D9
:101380000169C943490609D4C168C943490605D45E
:101390006FF040010161204600F036F820680169D5
:1013A000C94389060BD4C168C943890607D46FF0C5
:1013B000200101612046BDE87040FFF778BE70BD96
:1013C000704770470068B0F1804F17D10C48018812
:1013D00041F4004101800B486FF001010268116186
:1013E0000068016A41F21112114207D1016A92109C
:1013F000114203D1016821F0010101607047000032
:10140000020000201C0000207047704770B5026881
:1014100004461068D168536910F00F0F51D003F0E3
:10142000010501F4907635435DD0C20705D0CA05A9
:1014300003D5E26B42F00102E263420705D5DA0709
:1014400003D0E26B42F00202E263820705D5DA07BD
:1014500003D0E26B42F00402E263020705D5DA072B
:1014600003D0E26B42F00802E263E26B002A34D060
:10147000800604D5880602D5204600F0D6FA2068FA
:101480004069E16BC0F3801001F008010143204680
:1014900024D000F0BCFA2068416949061AD5416998
:1014A00021F040014161606BA0B11B494163606B59
:1014B000FFF728F9002810D0606B416BBDE8704041
:1014C000084783060FD58B060DD52046BDE8704032
:1014D00000F0ABBA2046FFF798FF70BDFFF795FF0D
:1014E0000020E06370BD030606D50B0604D5204638
:1014F000BDE8704000F040BB4006F3D54806F1D58A
:10150000D168204621F04001D160202184F83910B3
:1015100000F014F970BD0000FF19000870B5040058
:1015200004D094F83900002510B106E0012070BD08
:1015300084F83850204600F023F8242084F839003D
:101540002068C16821F40051C160204600F0B8FA5B
:101550002068016921F4904101612068416921F00E
:101560002A0141612068C16841F40051C160E5630E
:10157000202084F8390084F83A00002070BD000073
:10158000F0B585B0002400940194029403940546BC
:1015900003683A4F02203A4903224602BB4229D14E
:1015A0008B6943F480438B618B6903F4804304931C
:1015B0008B6943F004038B618969324D01F00401AA
:1015C00004910102CDE90010039269462846FFF715
:1015D00043F9CDE90064694628460294FFF73CF9D7
:1015E000002203212520FFF79FFA2520FFF78EFA1E
:1015F00005B0F0BD244FBB42FAD1CB6943F4802340
:10160000CB61CB6903F4802304938B6943F0080317
:101610008B61896901F00801CDE90321CDE9006002
:101620001A4E69463046FFF717F9F014CDE9000469
:10163000694630460294FFF70FF92868C16841F007
:101640002001C1602720FFF761FA00220221272034
:10165000FFF76AFA00F092F80D4844800D480068E0
:10166000016A41F211121142C2D1016A9210114273
:10167000BED1016821F001010160B9E700380140E5
:10168000001002400008014000480040000C0140EA
:10169000000000201C00002090F83A30202B22D1BE
:1016A000F9B1F2B190F83830012B1CD081628285FB
:1016B000C2850021C163222280F83A2080F83810C8
:1016C0000168CA6842F48072CA6001684A6942F0DF
:1016D00001024A610068C16841F02001C160002038
:1016E00070470120704702207047000010B5006865
:1016F0000E49884215D10E494888020411D4B0F52C
:10170000487F0FD20B4A00231468636220B9126825
:10171000136843F001031360074B0A781A54401C06
:10172000488010BD40F40040FAE700000048004047
:10173000000000201C0000205C0000207047FEE735
:101740000D4808B5816941F010018161816901F09E
:1017500010010091816941F008018161816901F006
:1017600008010091816941F004018161806900F004
:101770000400009008BD00000010024010B586B0C3
:1017800000241848009401940294039404944FF0A8
:1017900080410594016041F61F41C0E9011440F207
:1017A000E731C0E903148461FFF7A3FC08B1FEF739
:1017B000A7FF0C48FFF7D4FC4FF480500090694617
:1017C0000848FFF7DEFC08B1FEF79AFF049404A96D
:1017D00004480594FFF76CFC002801D0FEF790FF49
:1017E00006B010BD1C0000200C4810B50A4901606D
:1017F0004FF4E1314160002181600C22C160C0E9F9
:1018000004128161C161FFF789FE002803D0BDE8A1
:101810001040FEF775BF10BD00380140BC09002024
:101820000C4810B50A4901604FF4E13141600021D4
:1018300081600C22C160C0E904128161C161FFF7BF
:101840006DFE002803D0BDE81040FEF759BF10BD63
:1018500000480040FC090020FEE7704770477047D1
:10186000FFF7FCB830B58FB028216846FEF793FC2F
:1018700014210AA8FEF78FFC01210804CDE900100D
:101880000024029402250491CDE907504FF4E010A2
:1018900009906846FFF766FA0F20CDE90A0568024D
:1018A000CDE90C4002210AA80E94FFF76FF90FB0A2
:1018B00030BD00000D48016841F001010160416840
:1018C0000B4A1140416001680A4A114001600168F9
:1018D00021F480210160416821F4FE0141604FF450
:1018E0001F0181600449C003086070470010024076
:1018F0000000FFF8FFFFF6FE08ED00E00148FFF7EB
:10190000ACBC00001C000020F0B502681C4B1D4D53
:101910001D4E1E4F1E4C4FF0804C984209D0A042E5
:1019200007D0604505D0A84203D0B04201D0B842EC
:1019300004D122F0700E4A6842EA0E02984209D0A1
:10194000A04207D0604505D0A84203D0B04201D0E4
:10195000B84203D122F44075CA682A434D6922F087
:1019600080022A4302608A68C2620A6882629842E0
:1019700001D0A04201D10969016301214161F0BD9B
:10198000002C01400004004000080040000C004012
:101990000034014010B5846842EA032224F47F44F5
:1019A0000A432243826010BD826822F070020A431B
:1019B00042F007018160704710B5036A046A24F0A1
:1019C00001040462846924F0F00444EA021423F060
:1019D0000A020A438461026210BD10B5036A23F053
:1019E000100303628369046A23F4704343EA0232FA
:1019F00024F0A00343EA01118261016210BD10B519
:101A0000406A0021C185C184FFF7FFFC10BD016859
:101A1000CA6822F49072CA6001684A6922F0010221
:101A20004A61202180F83A10704710B590F83A10BA
:101A3000222901D0022010BD8168B1F5805F11D04C
:101A40000169002901681FD0496801F07F03816A9C
:101A50004A1C82620B70C18D491E0904090CC185A4
:101A600018D02BE00269816A002A0268526805D00A
:101A7000D2B20A80816A491C8162ECE7C2F3080293
:101A80000A80816A891CF7E74A68816A4B1C836275
:101A90000A70E0E70168CA6822F02002CA600168A3
:101AA000CA6822F48072CA6001684A6922F00102A1
:101AB0004A61202180F83A10FFF718FE002010BD7F
:101AC0002DE9F041044600680169E26821F44051C3
:101AD000114301612169A0680843616908432168D5
:101AE000CA6841F20C639A430243CA6020684169A4
:101AF000A26921F44071114341611E4920686425A7
:101B00003226884202D1FFF7E7F801E0FFF7D4F868
:101B100000EBC00101EB001160686FF01807800056
:101B2000B1FBF0F2B2FBF5F2B1FBF0F37A4303EB59
:101B30008202B1FBF0F306EB0212B2FBF5F2B3FB4B
:101B4000F5F302F0F00202EB0312B1FBF0F3B1FB8C
:101B5000F0F0B0FBF5F0784303EB800006EB0010EB
:101B6000B0FBF5F0216800F00F0010448860BDE87C
:101B7000F08100000038014090F83910212901D08F
:101B8000022070478168B1F5805F016A0BD04A1C62
:101B90000262026809785160C18C491E0904090C6F
:101BA000C1840ED017E009880268C1F308015160B2
:101BB00001690029016A02D0491C0162ECE7891C15
:101BC000FBE70168CA6822F08002CA600068C16849
:101BD00041F04001C1600020704700000148FFF75C
:101BE00015BC0000BC09002010B50548FFF70EFC2D
:101BF000BDE81040012203490148FFF74DBD000038
:101C0000FC09002000000020FEE700000FB4084B94
:101C100010B504A902AA039800F0F0F8044602A93E
:101C2000002000F082FC204610BC5DF814FB000090
:101C30002B25000837B514460846064B6A46214650
:101C400000F0DCF804466946002000F06EFC2046F7
:101C50003EBD00002B2500080907090E002804DB03
:101C600000F1E02080F80014704700F00F0000F150
:101C7000E02080F8141D704702E008C8121F08C158
:101C8000002AFAD170477047002001E001C1121FFD
:101C9000002AFBD1704700002DE9FF5FDDE902203B
:101CA000010DDDF838B0024318D044F61050A1F20F
:101CB000FF3141430D140F98012820D0A5EB0B00F4
:101CC000401C5FEA000A4FF00004474EDFF81C9109
:101CD000A046504616D5CAF1000728E00F98012407
:101CE00043A2012808D0002100980F9BC0E90021E1
:101CF000C0E90243BDE8FF9F6FEA0B01F4E7CBF1B7
:101D00000000DEE7074612E0F80707D02246334618
:101D100040464946FEF751FB8046894622463346F7
:101D200010461946FEF749FB04460E467F10002F69
:101D3000EAD1DDE90201BAF1000F42464B4602DA70
:101D4000FEF73BFB01E0FEF7AAFB04460E4600222D
:101D5000284BFEF72BFC03D84FF0FF30014607E07D
:101D60000022254B20463146FEF780FAFEF706FC9E
:101D7000102409E0002C0ADB0A220023FEF745FAB2
:101D8000019B30321A55641E50EA0102F2D1641CE4
:101D9000019AC4F1110314440F9A012A03D00122BD
:101DA00008430DD10AE0084304D000204FF0110B86
:101DB0000F9080E7A3EB0B056D1E0DE05B4504DD86
:101DC0004FF0000205F1010504E003DA4FF00002D4
:101DD000A5F10105002AECD000980F99C0E9023165
:101DE000C0E9004586E70000000024400000F03F05
:101DF000300000000000F0430000E03F2DE9FF4FFD
:101E000095B09B468946064600250FE2252877D1E6
:101E100000242746F84A0121059400E0044316F8FF
:101E2000013F203B01FA03F01042F7D130782A2815
:101E300011D06FF02F033078A0F13002092A16D8A4
:101E4000059A44F0020402EB820203EB42021044C2
:101E5000761C0590EFE759F8042B0592002A03DA67
:101E6000504244F40054059044F00204761C30784B
:101E70002E2816D116F8010F44F004042A280DD09C
:101E80006FF02F023078A0F13003092B09D807EB4F
:101E9000870302EB4303C718761CF3E759F8047B6A
:101EA000761C30786C280FD006DC4C2817D06828B8
:101EB0000DD06A2814D104E0742810D07A280FD1EC
:101EC0000DE044F400140AE044F4801401E044F40A
:101ED00040147278824202D104F58014761C761C7C
:101EE000307866280BD013DC582877D009DC00281E
:101EF00075D04528F6D04628F4D047281AD19DE160
:101F000018E0632835D0642879D0652812D195E18E
:101F1000702873D008DC6728F1D069286FD06E284C
:101F20000DD06F2806D1B5E073282CD0752875D058
:101F3000782874D05A46179990476D1C75E1C4F300
:101F40000250022809D003280DD0D9F80010042827
:101F50000DD00D6009F1040967E1D9F80010EA1706
:101F6000C1E90052F6E7D9F800100D80F2E70D70D4
:101F7000F0E719F8041B8DF8001000208DF801001F
:101F8000EA46012003E059F804AB4FF0FF30610747
:101F90004FF0000102D40DE008F101018846B9427A
:101FA0000FDA8045F8DB1AF808100029F4D108E0B0
:101FB00008F1010188468142FADB1AF8081000296D
:101FC000F6D105985B46A0EB080721463846179ADC
:101FD00000F094FA284400EB080507E04DE029E101
:101FE0000DE01AF8010B5A4617999047B8F101080D
:101FF000F7D25B4621463846179A13E142E00A229F
:102000000092C4F302524FF0000A022A08D059F895
:1020100004CB032A4FEAEC710AD00DE029E02AE054
:1020200009F1070121F00702F2E802C1914609E037
:102030000FFA8CFC4FEAEC71042A03D14FFA8CFCA6
:102040004FEAEC71002907DA0A460021DCF1000CA6
:1020500061EB02012D2202E0220504D52B228DF82E
:102060000420012203E0E20701D02022F7E7904696
:1020700059E00A2102E010220DE010214FF0000A81
:1020800000910BE010224FF0000A44F004040827EE
:10209000009203E008224FF0000A0092C4F30252BB
:1020A000022A05D059F804CB0021032A08D009E000
:1020B00009F1070121F00702F2E802C1914605E0AB
:1020C0001FFA8CFC042A01D10CF0FF0C4FF0000821
:1020D000220728D5702806D0009B83F0100353EA0E
:1020E0000A0305D00EE040228DF80420012208E00A
:1020F0005CEA010206D030228DF804208DF805003C
:1021000002229046009B83F0080353EA0A030AD197
:102110005CEA010201D1620705D530228DF8042066
:102120004FF001087F1E582804D034A003900EA859
:1021300002900DE036A0F9E753466046009AFEF79C
:1021400064F884460398825C0298401E02900270F4
:102150005CEA0100F0D1029806A9081A00F1200AF1
:10216000600702D524F4803400E00127574502DDE2
:10217000A7EB0A0000E0002000EB0A0100900598A0
:102180004144401A0590E00306D45B462146179A65
:10219000059800F0B3F90544002706E001A85A4667
:1021A000C05D179990476D1C7F1C4745F6DBE00327
:1021B0000CD55B462146179A059800F09FF9054417
:1021C00004E030205A46179990476D1C0099481E2C
:1021D00000900029F5DC08E0029802995A46007840
:1021E000491C0291179990476D1CBAF10001AAF1A0
:1021F000010AF1DC65E100000928010030313233C9
:102200003435363738396162636465660000000032
:10221000303132333435363738394142434445461C
:102220000000000000F058F90544761C30780028C2
:102230007FF4ECAD19B02846BDE8F08F620700D4FA
:10224000062709F1070222F0070CFCE80223E14609
:1022500003F000485FEA080C02D00FF2702C0DE08A
:102260005FEA045C02D50FF2682C07E05FEAC47CE9
:1022700002D00FF2602C01E0AFF2700C4FF0FF388B
:1022800023F00043CDF850C065280CD006DC45286B
:1022900009D046281DD047283DD13DE0662818D0FA
:1022A00067287ED138E00021112F01DB112000E0EA
:1022B000781CCDE9000106A90EA8FFF7EDFCDDE9C9
:1022C0000F010E9A03910021009207F1010A049177
:1022D0004DE04FF000400097CDE9011006A90EA88F
:1022E000FFF7DAFCDDE90F0203920E9B1199002241
:1022F000DDF80CA00093049211B9791C00EB010ADF
:10230000B7EB0A0004D4C0F1FF3007F1010A0490D2
:10231000AAEB0700019044E0012F00DA0127002119
:10232000112F01DD112000E03846CDE9000106A99A
:102330000EA8FFF7B1FCDDE90F010E9A0391002111
:1023400004910092BA4621070CD40399514500DA52
:102350008A46BAF1010F05DD009AAAF10101515C2C
:10236000302908D0B84202DA10F1040F06DA012150
:10237000CDE9011015E0AAF10101E9E7002805DC2B
:10238000049901440491AAEB000102E0411C51456B
:1023900000DD8A460499401A401C01904FF000402D
:1023A0000290200704D40198504501DBCDF8048049
:1023B00000208DF84F0002980DF14F07B0F1004F4B
:1023C00025D02B200E9002984FF0020800280CDA3E
:1023D000404202902D200E9007E00A210298FDF75E
:1023E000FEFE3031029007F8011DB8F10001A8F19E
:1023F0000108F2DC02980028EFD1791E0E980870CF
:10240000307800F0200040F0450007F8020D12A8D7
:10241000C01B00F107081498007800B1012000EB00
:102420000A01019801EBE07105984144401A401EF1
:102430000590E00306D45B462146179A059800F004
:102440005DF805441498007818B15A4617999047DA
:102450006D1CE00324D55B462146179A059800F0D1
:102460004DF805441CE00498002807DBDDE9030172
:10247000884203DD0098405C179901E017993020ED
:102480005A469047049805F10105401C04900198B4
:10249000401E019004D12E205A46179990476D1C7A
:1024A000BAF10001AAF1010ADDDC05E017F8010B21
:1024B0005A46179990476D1CB8F10001A8F1010820
:1024C000F4DC5B462146179A0598ABE62D00000028
:1024D0002B000000200000002DE9F04104460025FB
:1024E0001E461746880404D405E039462020B0472C
:1024F0006D1C641EF9D52846BDE8F0812DE9F04138
:10250000044600251E469046C80301D5302700E04A
:102510002027880404D505E041463846B0476D1CA5
:10252000641EF9D52846BDE8F0810A68531C0B608B
:102530001070704770B50A24322000F02BFC06465C
:102540000DA311A214A1FFF761FB4FF4967504E0EF
:1025500016A000F055FC641EE4B22A461AA13046CB
:1025600000F088FB2042F3D1304600F0BFFB0CB1F5
:10257000002070BD012070BD70617373776F72644D
:1025800030363036000000005A68616E67205A65A8
:102590006E672054616F000041542B43574A4150ED
:1025A0003D222573222C222573220000C1B4BDD305
:1025B0004150CAA7B0DCA3ACB3A2CAD4D6D8D0C20B
:1025C000C1ACBDD30D0A00005749464920474F54BE
:1025D0002049500010B574A000F012FC6420FEF7F2
:1025E00029F9322274A175A000F044FB74A000F018
:1025F00007FC00F017FB08B176A0B5E07DA000F065
:10260000FFFB81A000F0FCFB32226BA182A000F056
:1026100031FB08B182A01AE087A000F0F1FB8AA08C
:1026200000F0EEFB322264A164A000F023FB08B1AD
:102630008AA00CE08FA000F0E3FB93A000F0E0FB89
:1026400032225DA195A000F015FB20B196A000F00C
:10265000D7FB012010BD9BA000F0D2FB73A000F0BF
:10266000CFFB322254A19CA000F004FB20B19CA01F
:1026700000F0C6FB022010BD9FA000F0C1FB4FF48C
:102680007A742046FEF7D6F82046FEF7D3F82046A7
:10269000FEF7D0F82046FEF7CDF89DA000F0B0FB85
:1026A000322245A19FA000F0E5FA20B1A1A000F0E0
:1026B000A7FB032010BDA7A000F0A2FBAAA000F07A
:1026C0009FFBFFF737FF20B1ACA000F099FB04207F
:1026D00010BDB1A000F094FB2046FEF7ABF82046F9
:1026E000FEF7A8F8B1A000F08BFB642232A1B3A0E2
:1026F00000F0C0FA08B1B5A00CE0BBA000F080FB70
:10270000BDA000F07DFB64222BA1C1A000F0B2FAB5
:1027100020B1C2A000F074FB072010BDC7A000F0DC
:102720006FFBCCA000F06CFB00F00EFA20B1CEA045
:1027300000F066FB082010BDD2A000F061FB20A0D5
:1027400000F05EFB00F06EFA00287FF455AF29A080
:1027500000F056FBD0A000F053FB322216A1D3A00C
:1027600000F088FA20B1D5A000F04AFB062010BD89
:10277000D9A000F045FBDCA000F042FB22460EA1F0
:10278000DEA000F077FA20B1DFA000F039FB0920CD
:1027900010BDE4A000F034FB2046FEF74BF8E5A0A6
:1027A00000F04EFBF8E70000D7BCB1B8C5E4D6C3D3
:1027B000C4A3BFE90D0A00004F4B000041540000C4
:1027C000D7BCB1B8CDCBB3F6CDB8B4ABC4A3CABDFA
:1027D0000A000000CDCBB3F6CDB8B4ABC4A3CABDDC
:1027E000CAA7B0DCA3ACD7BCB1B8D6D8C6F40D0A22
:1027F00000000000CDCBB3F6CDB8B4ABC4A3CABDC6
:10280000B3C9B9A60D0A0000D7BCB1B8B9D8B1D5C3
:10281000BBD8CFD40D0A0000415445300000000061
:10282000B9D8B1D5BBD8CFD4CAA7B0DCD7BCB1B862
:10283000D6D8C6F40D0A0000B9D8B1D5BBD8CFD4CC
:10284000B3C9B9A60D0A0000B2E9D1AFC4A3BFE96C
:10285000CAC7B7F1D4DACFDF0D0A0000C4A3BFE9BD
:10286000B2BBD4DACFDFD7BCB1B8D6D8C6F40D0A24
:1028700000000000C9E8D6C3B2E9D1AFD4DACFDF97
:10288000B3C9B9A60D0A0000D7BCB1B8C9E8D6C310
:10289000535441C4A3CABD0D0A00000041542B4348
:1028A000574D4F44453D3100C9E8D6C3535441C448
:1028B000A3CABDCAA7B0DCD7BCB1B8D6D8C6F40D80
:1028C0000A000000C9E8D6C3535441C4A3CABDB32B
:1028D000C9B9A60D0A00000041542B525354000000
:1028E000D6D8C6F4CAA7B0DCA3ACD7BCB1B8D6D88A
:1028F000C6F40D0A00000000D6D8C6F4B3C9B9A6C4
:10290000A3ACB5C8B4FDC8FDC3EB0D0A00000000C0
:10291000D7BCB1B8C8A1CFFBD7D4B6AFC1ACBDD37B
:102920000D0A000041542B43574155544F434F4E1D
:102930004E3D3000C8A1CFFBD7D4B6AFC1ACBDD39C
:10294000CAA7B0DCA3ACD7BCB1B8D6D8C6F40D0AC0
:1029500000000000C8A1CFFBD7D4B6AFC1ACBDD337
:10296000B3C9B9A60D0A0000D7BCB1B8C1B4BDD374
:10297000C2B7D3C9C6F70D0A00000000C1ACBDD371
:10298000C2B7D3C9C6F7CAA7B0DCA3ACB5C8B4FDFB
:10299000D6D8C6F40D0A0000C1ACBDD3C2B7D3C9A6
:1029A000C6F7B3C9B9A60D0A00000000D7BCB1B87C
:1029B000BFAAC6F4444843500D0A000041542B43BB
:1029C00057444843503D312C31000000BFAAC6F4A3
:1029D00044484350CAA7B0DCA3ACD7BCB1B8D6D8E2
:1029E000C6F40D0A00000000C9E8D6C344484350AD
:1029F000B3C9B9A60D0A0000C9E8D6C3CEAAB9D892
:102A0000B1D5B6E0C2B7C1ACBDD30D0A000000001D
:102A100041542B4349504D55583D3000B9D8B1D59C
:102A2000B6E0C2B7C1ACBDD3CAA7B0DCA3ACD7BCBB
:102A3000B1B8D6D8C6F40D0A00000000C9E8D6C364
:102A4000B9D8B1D5B6E0C2B7C1ACBDD3B3C9B9A688
:102A50000D0A0000D7BCB1B8C1B4BDD3B7FECEF1EA
:102A6000C6F70D0A00000000C1ACBDD3B7FECEF121
:102A7000C6F7CAA7B0DCA3ACB5C8B4FDD6D8C6F4B7
:102A80000D0A0000C1ACBDD3B7FECEF1C6F7B3C985
:102A9000B9A60D0A00000000C9E8D6C3CEAACDB879
:102AA000B4ABC4A3CABD0D0A0000000041542B43BF
:102AB00049504D4F44453D3100000000C9E8D6C3A0
:102AC000CDB8B4ABCAA7B0DCA3ACD7BCB1B8D6D82C
:102AD000C6F40D0A00000000C9E8D6C3CDB8B4ABF7
:102AE000B3C9B9A60D0A0000C9E8D6C3BFAAC6F487
:102AF000CDB8B4ABC4A3CABD0D0A000041542B43EA
:102B0000495053454E440000BFAAC6F4CDB8B4ABFB
:102B1000CAA7B0DCA3ACD7BCB1B8D6D8C6F40D0AEE
:102B200000000000BFAAC6F4CDB8B4ABB3C9B9A6C3
:102B30000D0A0000546869732069732061206D6577
:102B400073736167650D0A0070B50A24322000F0C6
:102B500021F906460DA30FA211A1FFF757F84FF474
:102B6000967504E015A000F04BF9641EE4B22A4605
:102B70001AA1304600F07EF82042F3D1304600F032
:102B8000B5F80CB1002070BD012070BD383038366A
:102B9000000000003139322E3136382E302E370009
:102BA00041542B43495053544152543D22544350B5
:102BB000222C222573222C2573000000C1B4BDD322
:102BC000B7FECEF1C6F7CAA7B0DCA3ACB3A2CAD495
:102BD000D6D8D0C2C1ACBDD30D0A0000434F4E4E73
:102BE0004543540070B50B4C05460020218809046C
:102BF0000FD5094909A000F003F92188064AC1F35D
:102C00000E01002050542946BDE870401046FDF7E3
:102C1000CDBA70BD020000205C00002025730D0AB3
:102C20000000000070B5104C20684006FCD50E4E28
:102C30002B25361D35600F20FDF7FCFD2068400672
:102C4000FCD535600F20FDF7F5FD20684006FCD56A
:102C500035604FF4FA70FDF7EDFDBDE870401422C9
:102C600002A103A000F006B8004800404F4B00004E
:102C7000415400002DE9F047154D00268946804655
:102C8000144637462E804FF448711248FDF783FAF8
:102C9000414611A000F0D4F88CB915E00A20FDF7E8
:102CA000C9FD288800040AD54846FFF79BFF28B1D4
:102CB00049460BA000F0A4F82CB105E02F80641E5B
:102CC0002404240CEAD101263046BDE8F087000038
:102CD000020000205C00002025730D0A00000000A7
:102CE00061636B3A25730D0A0000000010B50028DF
:102CF00021D0114B0022001F196803E0814203D844
:102D00000A4649680029F9D152B11368841A9C42D5
:102D100004D1006818441060104602E0506000E0E2
:102D2000186039B102680B1A934203D10B681A4438
:102D300002604968416010BD14000020FDF796FE56
:102D4000FEF790FDFEF7FCFCFEF74EFDFEF768FD7A
:102D500001220B490B48FEF79FFC0BA000F050F836
:102D60004FF47A742046FDF765FD2046FDF762FDBD
:102D70002046FDF75FFD00BFFFF72CFCFCE70000DD
:102D800000000020FC090020BFAACABCC5E4D6C3CD
:102D900000000000F0B50B30154D20F007010024B5
:102DA000144A0FE003688B420BD38B4205D95E1A9D
:102DB00043184768C3E9006700E04368136002C036
:102DC00004E0021D10680028ECD12046002802D142
:102DD000286808B10020F0BD064A07481060074A7D
:102DE000121A22F00702C0E9002401202860D7E768
:102DF0001800002014000020440A0020400C00208D
:102E00000FB40D4870B505AA0499FEF713FF0A48E0
:102E1000FDF7DEF9C1B2094A0020074B141D06E098
:102E200015686D06FCD51D5C2560401CC0B288424B
:102E3000F6D370BC5DF814FB9C06002000380140FE
:102E40000FB40D4870B505AA0499FEF7F3FE0A48C1
:102E5000FDF7BEF9C1B2094A0020074B141D06E078
:102E600015686D06FCD51D5C2560401CC0B288420B
:102E7000F6D370BC5DF814FB7C03002000480040D2
:102E8000000000000000000001020304060708091A
:102E90000000000001020304B82E0008000000201A
:102EA0001C000000781C0008D42E00081C00002024
:102EB00024100000881C0008000000000100000031
:102EC00010000000000000000024F40000000000DA
:042ED00000000000FE
:0400000508000131BD
:00000001FF
